:1000000072C000009EC000009CC000009AC00000AA
:1000100098C0000096C0000094C0000092C000008C
:1000200090C000008EC000008CC000008AC000009C
:1000300088C0000086C0000084C0000082C00000AC
:1000400080C000007EC000007CC000007AC00000BC
:1000500078C0000076C0000074C0000017C1000026
:1000600070C000006EC000006CC000006AC00000DC
:1000700068C0000066C0000064C0000062C00000EC
:1000800060C000005EC000005CC000005AC00000FC
:1000900058C0000056C0000054C0000052C000000C
:1000A00050C000004EC000004CC000004AC000001C
:1000B00048C0000046C0000044C0000042C000002C
:1000C00040C000003EC000003CC000003AC000003C
:1000D00038C0000036C0000034C0000032C000004C
:1000E00030C00000900111241FBECFEFD1E2DEBF6F
:1000F000CDBF00E00CBF12E0A0E0B2E0E0EBF5E025
:1001000000E00BBF02C007900D92A630B107D9F7EF
:1001100022E0A6E0B2E001C01D92A935B207E1F7E6
:1001200010E0C3E7D0E000E005C021970109802F6F
:10013000FE0130D2C237D10780E00807B1F73BD1CA
:1001400035C25ECF2FD24F925F926F927F92EF9225
:10015000FF920F931F93CF93DF93CDB7DEB7A19795
:100160000FB6F894DEBF0FBECDBF7C01FA01CB0104
:1001700019A2223008F42AE08E010F5D1F4F422E93
:10018000512C612C712CBF01A3019201E1D1F90125
:10019000CA01015011096A3014F4605D01C0695C44
:1001A000D8016C93232B242B252B69F701151105FE
:1001B00091F0F80101900020E9F73197AF01401B61
:1001C000510BD701ED91FC910280F381E02DB80134
:1001D000C701199502C080E090E0A1960FB6F8948F
:1001E000DEBF0FBECDBFDF91CF911F910F91FF906A
:1001F000EF907F906F905F904F9008958F929F92B5
:10020000AF92BF92CF92DF92EF92FF920F931F9324
:10021000CF93DF937C01EB016C0182E0C80ED11C0F
:100220004701E5E08E0E911C00E010E0F6014191DF
:100230006F0150E060E070E02AE0CE0184DF5C01F5
:10024000E881F9810190F081E02D6EE2CE011995EF
:100250008A0D9B1D080F191FC814D90439F7F7011F
:10026000458150E060E070E02AE0CE016CDF800F55
:10027000911FDF91CF911F910F91FF90EF90DF9031
:10028000CF90BF90AF909F908F9008951F920F9244
:100290000FB60F9211242F933F938F939F93AF9399
:1002A000BF9380910B0290910C02A0910D02B0912E
:1002B0000E0230910A0223E0230F2D3720F401961D
:1002C000A11DB11D05C026E8230F0296A11DB11D79
:1002D00020930A0280930B0290930C02A0930D02CC
:1002E000B0930E028091060290910702A09108023D
:1002F000B09109020196A11DB11D80930602909351
:100300000702A0930802B0930902BF91AF919F9199
:100310008F913F912F910F900FBE0F901F901895C6
:10032000E1E2F2E084E092E0918380831282138222
:1003300014821582E7E2F2E09183808312821382B5
:1003400014821582EDE2F2E091838083128213829F
:1003500014821582E3E3F2E0918380831282138298
:1003600014821582E1E4F2E0918380831282138289
:1003700014821582E9E3F2E0918380831282138272
:1003800014821582E7E4F2E0918380831282138263
:1003900014821582EDE4F2E091838083128213824D
:1003A00014821582E3E5F2E0918380831282138246
:1003B000148215820895789484B5826084BD84B5D2
:1003C000816084BD85B5826085BD85B5816085BD50
:1003D00080916E00816080936E0010928100809108
:1003E0008100826080938100809181008160809390
:1003F0008100809180008160809380008091B100B5
:1004000084608093B1008091B00081608093B000DF
:100410008091910082608093910080919100816031
:1004200080939100809190008160809390008091F2
:10043000A10082608093A1008091A10081608093DF
:10044000A1008091A00081608093A0008091210193
:10045000826080932101809121018160809321013C
:100460008091200181608093200180917A008460D6
:1004700080937A0080917A00826080937A008091E4
:100480007A00816080937A0080917A0080688093FE
:100490007A001092C10082E090E090931E02809357
:1004A0001D029093200280931F0290931802809364
:1004B000170290931A02809319028FEF9FEF909387
:1004C00014028093130290931602809315021092E7
:1004D0001B0210921C0210920F0210921002109236
:1004E000110210921202C0E0D0E040911D02509122
:1004F0001E0220911B028091170290911802413038
:10050000510561F042305105A9F04115510599F4AA
:1005100011C085E090E021E0209779F484309105C6
:10052000C1F324F48330910588F005C0863091052D
:1005300069F001C020E0209711F320931B029093F3
:100540001802809317020E940000CFCF20E0E4CF72
:10055000A1E21A2EAA1BBB1BFD010DC0AA1FBB1FC7
:10056000EE1FFF1FA217B307E407F50720F0A21B39
:10057000B30BE40BF50B661F771F881F991F1A94A6
:1005800069F760957095809590959B01AC01BD01D0
:10059000CF010895EE0FFF1F881F8BBF0790F691C4
:1005A000E02D199481E090E0F89400C0F894FFCF1A
:0605B00000000000FE0047
:00000001FF
